{
    "txid": "992a7682dd3528bcba56aebe653bed9b6b09bd09919975b81f07c63638bed01b",
    "hash": "992a7682dd3528bcba56aebe653bed9b6b09bd09919975b81f07c63638bed01b",
    "version": 2,
    "size": 85,
    "vsize": 85,
    "locktime": 0,
    "vin": [
        {
            "txid": "69e9c12d30a6cd598a31ddfcaabeb9d9f0baf8938bf0ba6610beb04f589cc5ef",
            "vout": 0,
            "scriptSig": {
                "asm": "",
                "hex": ""
            },
            "sequence": 4294967293
        }
    ],
    "vout": [
        {
            "value": 0.00200000,
            "n": 0,
            "scriptPubKey": {
                "asm": "OP_DUP OP_HASH160 feda50542e61108cf53b93dbffa0959f91ccb325 OP_EQUALVERIFY OP_CHECKSIG",
                "hex": "76a914feda50542e61108cf53b93dbffa0959f91ccb32588ac",
                "reqSigs": 1,
                "type": "pubkeyhash",
                "addresses": [
                    "Gh5TaZRDGLDkRhRWRqCB5wnxp7ZwrYYD2X"
                ]
            }
        }
    ],
    "hex": "0200000001efc59c584fb0be1066baf08b93f8baf0d9b9beaafcdd318a59cda6302dc1e9690000000000fdffffff01400d0300000000001976a914feda50542e61108cf53b93dbffa0959f91ccb32588ac00000000"
}
