{
    "txid": "4d445f09c31a13b026a84ed28a2597c663b39a70be82fdca86d5bf0c15cc3c9e",
    "hash": "4d445f09c31a13b026a84ed28a2597c663b39a70be82fdca86d5bf0c15cc3c9e",
    "version": 2,
    "size": 201,
    "vsize": 201,
    "locktime": 0,
    "vin": [
        {
            "txid": "5ee62e3f7757f5fd995b2fa1bdb5b744298146098d5de92959ec4b52dc77191e",
            "vout": 1,
            "scriptSig": {
                "asm": "",
                "hex": ""
            },
            "sequence": 4294967295
        },
        {
            "txid": "3cd215c1c6b7ae33bc6266f268fd212b83860e13902b454502ce6d54448e398a",
            "vout": 25,
            "scriptSig": {
                "asm": "",
                "hex": ""
            },
            "sequence": 4294967295
        },
        {
            "txid": "0f941395005b80a61726baecebb11d7caa184a1a58246daff7dffca793ab07b8",
            "vout": 12,
            "scriptSig": {
                "asm": "",
                "hex": ""
            },
            "sequence": 4294967295
        }
    ],
    "vout": [
        {
            "value": 12.52000000,
            "n": 0,
            "scriptPubKey": {
                "asm": "OP_DUP OP_HASH160 5688ac6b45bcc02f738e2970d2381d068d68eea7 OP_EQUALVERIFY OP_CHECKSIG",
                "hex": "76a9145688ac6b45bcc02f738e2970d2381d068d68eea788ac",
                "reqSigs": 1,
                "type": "pubkeyhash",
                "addresses": [
                    "GRjUFsDdDMFoKeaooXPV936GdS6vBvTUY3"
                ]
            }
        },
        {
            "value": 0.01000487,
            "n": 1,
            "scriptPubKey": {
                "asm": "OP_DUP OP_HASH160 1c2578aa5e5c10ba3b6c3b71a78bff48077d8ba1 OP_EQUALVERIFY OP_CHECKSIG",
                "hex": "76a9141c2578aa5e5c10ba3b6c3b71a78bff48077d8ba188ac",
                "reqSigs": 1,
                "type": "pubkeyhash",
                "addresses": [
                    "GLQkE43uiPK1U1VbR8GxaYqcY84bpRfdyq"
                ]
            }
        }
    ],
    "hex": "02000000031e1977dc524bec5929e95d8d0946812944b7b5bda12f5b99fdf557773f2ee65e0100000000ffffffff8a398e44546dce0245452b90130e86832b21fd68f26662bc33aeb7c6c115d23c1900000000ffffffffb807ab93a7fcdff7af6d24581a4a18aa7c1db1ebecba2617a6805b009513940f0c00000000ffffffff020001a04a000000001976a9145688ac6b45bcc02f738e2970d2381d068d68eea788ac27440f00000000001976a9141c2578aa5e5c10ba3b6c3b71a78bff48077d8ba188ac00000000"
}
